:020000040800F2
:1000000000500020CD0E0008150F0008150F000845
:10001000150F0008150F0008150F0008000000005C
:10002000000000000000000000000000150F0008A4
:10003000150F000800000000150F0008150F00083C
:10004000150F0008150F0008150F0008150F000800
:10005000150F0008150F0008150F0008150F0008F0
:10006000150F0008150F0008150F0008150F0008E0
:10007000150F0008150F0008150F0008150F0008D0
:10008000150F0008150F0008150F0008150F0008C0
:10009000150F0008150F0008150F00089506000839
:1000A000150F0008150F0008150F0008150F0008A0
:1000B000150F0008150F0008150F0008150F000890
:1000C000150F0008150F0008150F0008150F000880
:1000D000150F0008150F0008150F0008150F000870
:1000E000E5060008150F0008150F000800000000C5
:1000F0000000000000000000000000000000000000
:0C01000000000000000000005FF808F1A3
:10010C0010B5054C237833B9044B13B10448AFF345
:10011C0000800123237010BD9C0100200000000012
:10012C00600F000808B5034B1BB103490348AFF33C
:10013C00008008BD00000000A0010020600F000836
:10014C0080B582B000AF03460A46FB711346BB7103
:10015C00BB79002B03D0104B01221A6002E00E4B2E
:10016C0000221A600D4B00221A60FB799BB21846D4
:10017C0000F050FE00BF0A4B9B6803F08003002B7D
:10018C00F9D1064B01221A60034B01221A6000BF01
:10019C000837BD4680BD00BF840121428001214249
:1001AC000030014080B582B000AF0346FB710B46B6
:1001BC00BB711346BB80FB795F2B2BD8BB793F2BD4
:1001CC0028D800211520FFF7BBFFFB79002118462A
:1001DC00FFF7B6FF00215F20FFF7B2FF002175206B
:1001EC00FFF7AEFFBB7900211846FFF7A9FF0021EE
:1001FC003F20FFF7A5FFBB881B0A9BB2DBB2012196
:10020C001846FFF79DFFBB88DBB201211846FFF7AC
:10021C0097FF00E000BF0837BD4680BD90B585B0A4
:10022C0000AF0446084611461A462346FB710346A6
:10023C00BB710B467B7113463B71BB793B73FB79EE
:10024C005F2B50D8BB793F2B4DD80023FB7345E077
:10025C003B790C2B0DD17B79A3F12002F97B24483F
:10026C0013465B0013449B0003440B441B787B73C5
:10027C000CE03B79102B09D17B79A3F12002FB7B9D
:10028C001C4912010A4413441B787B730023BB7373
:10029C001EE097F90D30002B05DA3A8CB979FB7911
:1002AC001846FFF77FFF7B7B5B007B73BB790133C9
:1002BC00BB71BA793B7BD21A3B799A4205D13B7B15
:1002CC00BB71FB790133FB7105E0BB7B0133BB7365
:1002DC00BB7B072BDDD9FB7B0133FB73FA7B3B79B3
:1002EC009A42B5D300E000BF1437BD4690BD00BFA5
:1002FC002C100008A014000890B585B002AF3A602D
:10030C001A460346FB710B46BB7113467B71FB7996
:10031C005F2B36D8BB793F2B33D82DE0FA797B791C
:10032C005B08DBB2C3F160039A4212DD0023FB7160
:10033C00BA797B791344BB71BA797B79C3F14003E9
:10034C009A4206DD0023FB71FB79BB71002000F0A3
:10035C001CF83B681A787C79B979F8793B8B009357
:10036C002346FFF75BFF7B795B08DAB2FB7913441A
:10037C00FB713B6801333B603B681B78002BCDD194
:10038C0000E000BF0C37BD4690BD80B584B000AF17
:10039C000346FB800023FB8113E00023BB810AE0B2
:1003AC00BB89DBB2FA89D1B2FA881846FFF7FAFE9C
:1003BC00BB890133BB81BB895F2BF1D9FB8901332D
:1003CC00FB81FB893F2BE8D900BF1037BD4680BDB0
:1003DC0080B500AF544B01221A6000BF534B9B6891
:1003EC0003F08003002BF9D1514B01221A6000213C
:1003FC00AE20FFF7A5FE00218120FFF7A1FE002112
:10040C00FF20FFF79DFE00218220FFF799FE0021BF
:10041C00FF20FFF795FE00218320FFF791FE0021BE
:10042C00FF20FFF78DFE00218720FFF789FE0021BA
:10043C000620FFF785FE00218A20FFF781FE0021B0
:10044C006420FFF77DFE00218B20FFF779FE002151
:10045C007820FFF775FE00218C20FFF771FE00213C
:10046C006420FFF76DFE0021A020FFF769FE00213C
:10047C007220FFF765FE0021A120FFF761FE00212D
:10048C000020FFF75DFE0021A220FFF759FE00219E
:10049C000020FFF755FE0021A420FFF751FE00219C
:1004AC00A820FFF74DFE00213F20FFF749FE002159
:1004BC00AD20FFF745FE00218E20FFF741FE002105
:1004CC00B020FFF73DFE00210020FFF739FE002190
:1004DC00B120FFF735FE00213120FFF731FE00215E
:1004EC00B320FFF72DFE0021F020FFF729FE00219D
:1004FC00BB20FFF725FE00213A20FFF721FE00214B
:10050C00BE20FFF71DFE00213E20FFF719FE002143
:10051C002E20FFF715FE0021AF20FFF711FE002063
:10052C00FFF733FF00BF80BD88012142003001403E
:10053C008001214280B483B000AF0346FB7197F970
:10054C000730002B0BDBFB7903F01F02064997F9F0
:10055C0007305B09012000FA02F241F8232000BFAA
:10056C000C37BD4680BC704700E100E080B500AFA1
:10057C003D4B9B693C4A43F4006343F00D0393618C
:10058C0008224FF48071394800F0D0F808224FF45B
:10059C000071364800F0CAF8354B01221A60354B11
:1005AC0001221A60344B9B68334A43F00103936079
:1005BC00314B9B69304A43F4704343F0F003936131
:1005CC002D4B0A22DA622C4B1B682B4A43F0010399
:1005DC0013602A4B294A1B691361294B1B68284A53
:1005EC0043F480731360264BDB68254A43F4807315
:1005FC00D3601720FFF79EFF04224FF4805121484F
:10060C0000F094F81D4B5B691C4A43F001035361E5
:10061C001B4B1B681A4A43F480531360184BDB685E
:10062C00174A43F48053D3602820FFF783FF04223A
:10063C004FF40051134800F079F8104B5B690F4AE6
:10064C0043F0100353610E4B1B680D4A43F40053E7
:10065C0013600B4BDB680A4A43F40053D360282029
:10066C00FFF768FF00BF80BD00100240000801408A
:10067C00A0012142A4012142002C014000000140B4
:10068C0000040140000C0140684620F007018D4633
:10069C0089B500AF0E4B5B6903F48073002B10D04F
:1006AC000B4B5B690A4A43F480735361094B9B689B
:1006BC0003F40073002B02D000F0CEF901E000F03F
:1006CC000DFA00BFBD46BDE889408546704700BFA6
:1006DC000004014000080140684620F007018D46E7
:1006EC0089B500AF104B5B6903F48053002B07D026
:1006FC000D4B5B690C4A43F48053536100F02AFAAA
:10070C00094B5B6903F40053002B07D0064B5B6964
:10071C00054A43F40053536100F05AFA00BFBD463A
:10072C00BDE88940854670470004014080B485B01F
:10073C0000AF78600B467B8013467B707B8893FA06
:10074C00A3F3B3FA83F39BB29B007B807B68FB60C3
:10075C007B881C2B05D97B88203B7B807B680433F2
:10076C00FB60FB681B68BB607B880F2202FA03F3FB
:10077C00DB43BA681340BB607A787B8802FA03F3D8
:10078C001A46BB681343BB60FB68BA681A6000BFAB
:10079C001437BD4680BC704780B500AF174B9B69C2
:1007AC00164A43F008039361144BDB69134A43F474
:1007BC000013D3610D2240211148FFF7B7FF0D2222
:1007CC0080210F48FFF7B2FF0E4B5B680D4A23F0F8
:1007DC003F0353600B4B5B680A4A43F008035360BA
:1007EC00084B09221A62074B2822DA61054B1B6859
:1007FC00044A43F00103136000BF80BD00100240A7
:10080C00000C01400054004080B485B000AF03469A
:10081C003960FB711346BB712A4B1B68294A23F4C0
:10082C0000631360274B1B68264A43F480731360E4
:10083C0000BF244B5B6903F00103002BF9D0214A64
:10084C00FB79136100BF1F4B5B6903F00203002BA4
:10085C00F9D01C4B5B69BB601A4B9B69BB60BB68D6
:10086C000023FB73BB79BB731CE000BF154B5B69AA
:10087C0003F08003002BF9D0FB7B3A6813441A7801
:10088C00104B1A61FB7B0133FB7397F90E30DBB213
:10089C00013BDBB2BB7300BF0A4B5B6903F0040383
:1008AC00002BF9D097F90E30002BDEDC054B1B68C2
:1008BC00044A43F40073136000BF1437BD4680BC78
:1008CC00704700BF0054004080B500AF00F06CFAD8
:1008DC00FFF77EFD0020FFF758FDFFF75DFFFFF7E8
:1008EC0045FEFEE780B584B002AF344B1B681B6934
:1008FC00002B05D0314B1B681B69DB687B6001E06A
:10090C002F4B7B600023FB7005E07B685B687B6092
:10091C00FB780133FB70FA782A4B1B7819462A4B6B
:10092C001B78CB1A9A42F0D10020FFF72EFD002342
:10093C00FB7039E0214B1B687A689A420ED1FB7828
:10094C001A46920013445B00D9B24FF478430093DB
:10095C000C231E4A0020FFF7CFFC0DE0FB781A4653
:10096C00920013445B00D9B24FF4784300930C23EC
:10097C00174A0020FFF7C0FCFB781A46920013447C
:10098C005B00D9B27B681A684FF4FC6300930C23AC
:10099C000F20FFF7B1FC7B685B687B607B68002BEA
:1009AC0006D0FB780133FB70FB78052BC2D900E035
:1009BC0000BF00BF0837BD4680BD00BF98010020B6
:1009CC0000000020BA010020BB0100202410000808
:1009DC002810000880B485B000AF78600023FB724B
:1009EC007B681B69002B04D07B681B69DB68FB6090
:1009FC0008E0094BFB6005E0FB685B68FB60FB7A79
:100A0C000133FB72FA687B689A42F5D1FB7A18467F
:100A1C001437BD4680BC70470000002080B485B000
:100A2C0000AF78607B68FB600023FB727B681B69FE
:100A3C00002B07D100230AE0FB681B69FB60FB7AE3
:100A4C000133FB72FB681B69002BF5D1FB7A18464E
:100A5C001437BD4680BC704780B500AF1B4B1B687C
:100A6C005B68002B18D0194B1B685B68174A136026
:100A7C00174B1B780133DAB2154B1A70154B1B78D8
:100A8C000133DAB2134B1A70124B1B78052B18D9A1
:100A9C00104B05221A7014E00D4B00221A700D4BEE
:100AAC0000221A70094B1B681B69002B06D0074BE0
:100ABC001B681B69DB68054A136002E0034B064A9E
:100ACC001A60FFF70FFF00BF80BD00BF9801002028
:100ADC00BA010020BB0100200000002080B500AF4F
:100AEC00194B1B689B68184A1360184B1B78002B1A
:100AFC0010D0164B1B78013BDAB2144B1A70144B06
:100B0C001B78002B1BD0124B1B78013BDAB2104B1D
:100B1C001A7014E00C4B1B681846FFF75BFF03467A
:100B2C001A460A4B1A70094B1B78042B03D9084B35
:100B3C0005221A7003E0054B1A78054B1A70FFF763
:100B4C00D1FE00BF80BD00BF98010020BA0100207B
:100B5C00BB01002080B500AF184B1B685B69002BF4
:100B6C0003D0164B1B685B699847144B1B68DB68FA
:100B7C00002B21D0114B1B681846FFF74FFF034683
:100B8C00002B02D0012B05D009E00D4B1A780D4B30
:100B9C001A7004E00A4B1A780B4B1A7000BF0B4BFF
:100BAC0000221A70064B00221A70044B1B68DB687B
:100BBC00024A1360FFF796FE00BF80BD980100202B
:100BCC00BB010020B8010020B9010020BA010020AF
:100BDC0080B500AF154B1B681B69002B24D0134B41
:100BEC001B681846FFF71AFF0346012B02D0022B95
:100BFC0005D009E00E4B1A780E4B1A7004E00E4B20
:100C0C001A780C4B1A7000BF084B1B681B69074AFB
:100C1C001360064B1B681846FFF7DCFE03461A46AA
:100C2C00064B1A70FFF75EFE00BF80BD98010020D6
:100C3C00B8010020BB010020B9010020BA0100203E
:100C4C0080B500AF032203492220FFF7DDFD00BF72
:100C5C0080BD00BF981A000880B500AF032203497D
:100C6C002220FFF7D1FD00BF80BD00BF9C1A0008F9
:100C7C0080B500AF032203492220FFF7C5FD00BF5A
:100C8C0080BD00BFA01A000880B500AF0322034945
:100C9C002220FFF7B9FD00BF80BD00BFA41A0008D9
:100CAC0080B500AF032203492220FFF7ADFD00BF42
:100CBC0080BD00BFA81A000880B500AF032203490D
:100CCC002220FFF7A1FD00BF80BD00BFAC1A0008B9
:100CDC0080B500AF032203492220FFF795FD00BF2A
:100CEC0080BD00BFB01A000880B500AF03220349D5
:100CFC002220FFF789FD00BF80BD00BFB41A000899
:100D0C0080B500AF032203492220FFF77DFD00BF11
:100D1C0080BD00BFB81A000880B500AF032203499C
:100D2C002220FFF771FD00BF80BD00BFBC1A000878
:100D3C0080B500AF032203492220FFF765FD00BFF9
:100D4C0080BD00BFC01A000880B500AF0322034964
:100D5C002220FFF759FD00BF80BD00BFC41A000858
:100D6C0080B500AF032203492220FFF74DFD00BFE1
:100D7C0080BD00BFC81A000880B500AF032203492C
:100D8C002220FFF741FD00BF80BD00BF941A000870
:100D9C0080B500AF032203492220FFF735FD00BFC9
:100DAC0080BD00BF901A000880B500AF164B9B6940
:100DBC00154A43F4805343F004039361012201214B
:100DCC001248FFF7B3FC012202211048FFF7AEFCDA
:100DDC00012204210D48FFF7A9FC092220210B4810
:100DEC00FFF7A4FC082240210848FFF79FFC0922CA
:100DFC0080210648FFF79AFC054B1B68044A43F414
:100E0C005173136000BF80BD001002400008014008
:100E1C000030014080B483B000AF0346FB8000BFBC
:100E2C000C4B9B6803F00203002BF9D0094AFB889A
:100E3C00D36000BF074B9B6803F00103002BF9D074
:100E4C00044BDB68FB80FB8818460C37BD4680BC26
:100E5C00704700BF0030014080B400AF154B1B68D9
:100E6C00144A43F001031360124B5A681149124B98
:100E7C0013404B600F4B1B680E4A23F0847323F412
:100E8C00803313600B4B1B680A4A23F480231360D6
:100E9C00084B5B68074A23F4FE035360054B4FF481
:100EAC001F029A60054B4FF000629A6000BFBD466E
:100EBC0080BC7047001002400000FFF800ED00E01D
:100ECC00002103E00B4B5B58435004310A480B4B99
:100EDC0042189A42F6D30A4A02E0002342F8043B35
:100EEC00084B9A42F9D3FFF7B7FF00F00FF8FFF762
:100EFC00EBFC7047D41A0008000000209C01002075
:100F0C009C010020BC010020FEE7000070B500250C
:100F1C000C4E0D4CA41BA410A54209D100F01AF8DC
:100F2C0000250A4E0A4CA41BA410A54205D170BD85
:100F3C0056F8253098470135EEE756F82530984796
:100F4C000135F2E7CC1A0008CC1A0008CC1A0008BC
:100F5C00D01A0008F8B500BFF8BC08BC9E46704714
:0C0F6C00F8B500BFF8BC08BC9E467047FA
:100F7800535441434A450000524D46464D00000037
:100F8800524144494F204B52414B4F5700000000FB
:100F9800524144494F205A455400000052414449A7
:100FA8004F20504C55530000524144494F50524F26
:100FB8004752413100000000524144494F50524FBE
:100FC8005047524133000000474C4F534E4F534354
:100FD80000000000676C6F7320360000676C6F7349
:100FE80020323000676C6F7320333000676C6F738A
:100FF80020353000676C6F7320363000676C6F7374
:1010080020373300676C6F732038360057594C41CE
:10101800435A0000574C41435A0000002D3E00003F
:101028002020000000000000000000000000000078
:10103800000000003F4000000000000000003000F9
:10104800400030004000000009000BC03D000BC00C
:101058003D00090018C024407FE022403180000094
:10106800180024C01B000D803240018003801C4002
:1010780027401C800740004010006000000000006E
:10108800000000000000000000001F8020404020F9
:101098000000402020401F800000000009000600DA
:1010A8001F80060009000000040004003F800400BF
:1010B80004000000001000600000000000000000B4
:1010C80004000400040004000400000000000040C4
:1010D8000000000000000000002001C006003800E9
:1010E800400000001F802040204020401F8000005A
:1010F800000010403FC000400000000018C0214020
:101108002240244018400000108020402440244001
:101118001B80000002000D0011003FC001400000CC
:101128003C80244024402440238000001F80244029
:1011380024403440038000003000200027C03800DD
:10114800200000001B802440244024401B80000015
:101158001C0022C0224022401F8000000000000026
:1011680008400000000000000000000004600000CB
:1011780000000000000004000A0011002080404028
:1011880009000900090009000900000000004040AA
:10119800208011000A0004001800200023402400C9
:1011A800180000001F802040274029401F400000F1
:1011B800004007C039000F0001C0004020403FC078
:1011C800244024401B8000001F80204020402040F5
:1011D8003080000020403FC0204020401F80000099
:1011E80020403FC024402E4030C0000020403FC077
:1011F80024402E00300000000F00108020402240C4
:101208003380020020403FC0040004003FC020405B
:10121800204020403FC020402040000000602020A7
:1012280020203FC02000200020403FC024400B0069
:1012380030C0204020403FC020400040004000C057
:101248003FC03C0003C03C003FC0000020403FC0FE
:101258000C4023003FC020001F8020402040204039
:101268001F80000020403FC02440240018000000D8
:101278001F802140214020E01FA0000020403FC0E7
:101288002440260019C0004018C0244024402240B1
:1012980031800000300020403FC020403000000076
:1012A80020003F80004000403F80200020003E009A
:1012B80001C0070038002000380007C03C0007C004
:1012C80038000000204039C0060039C02040000026
:1012D8002000384007C0384020000000304021C0BE
:1012E8002640384020C00000000000007FE0402079
:1012F80040200000000070000C0003800040000047
:101308000000402040207FE0000000000000200096
:101318004000200000000000001000100010001025
:101328000010001000000000400000000000000055
:10133800000002800540054003C0004020003FC077
:10134800044004400380000000000380044004407F
:101358000640000000000380044024403FC00040D5
:1013680000000380054005400340000000000440E1
:101378001FC0244024402000000002E00550055012
:101388000650042020403FC00440040003C0004031
:101398000000044027C000400000000000100010BA
:1013A800041027E00000000020403FC00140070073
:1013B80004C00440204020403FC0004000400000DE
:1013C80007C0040007C0040003C00000044007C0B1
:1013D8000440040003C000400000038004400440AF
:1013E80003800000041007F004500440038000004C
:1013F800000003800440045007F00010044007C0B8
:1014080002400400040000000000064005400540BA
:1014180004C00000000004001F80044000400000D9
:10142800040007800040044007C000400400070093
:1014380004C0018006000400060001C0070001C0C6
:1014480006000000044006C0010006C00440000079
:101458000410071004E001800600040000000440A6
:1014680005C00640044000000000000004007BE0C6
:1014780040200000000000000000FFF00000000015
:10148800000040207BE004000000000040008000D5
:101498004000200020004000000000000000000084
:1014A80000000000000000000000000000001FCC49
:1014B800000C000000000000000008003000600080
:1014C8000800300060000000022003FC1E200220FB
:1014D80003FC1E200220000000000E1811043FFF2C
:1014E80010840C78000000000F0010840F3800C032
:1014F800077818840078000000780F8410C411243D
:101508000E9800E4008400080800680070000000DD
:10151800000000000000000000000000000007E0DC
:101528001818200440020000000040022004181887
:1015380007E00000000000000240024001800FF0B8
:1015480001800240024000000080008000800FF807
:1015580000800080008000000001000D000E0000E7
:1015680000000000000000000000008000800080F3
:1015780000800080008000800000000C000C00004B
:1015880000000000000000000000000600180060D5
:101598000180060018002000000007F00808100469
:1015A8001004080807F000000000080408041FFCE5
:1015B800000400040000000000000E0C10141024A9
:1015C800104411840E0C000000000C1810041104C3
:1015D800110412880C700000000000E003200424AD
:1015E80008241FFC0024000000001F981084110428
:1015F8001104108810700000000007F0088811041A
:10160800110418880070000000001C00100010FC75
:1016180013001C001000000000000E381144108454
:10162800108411440E38000000000700088C104494
:101638001044088807F00000000000000000030CB8
:10164800030C00000000000000000000000101067B
:10165800000000000000000000000080014002209F
:1016680004100808100400000220022002200220B2
:1016780002200220022000000000100408080410C4
:10168800022001400080000000000E001200100C33
:10169800106C10800F00000003E00C1813E41424F1
:1016A80017C4082807D000000004003C03C41C40ED
:1016B800074000E4001C000410041FFC110411047E
:1016C80011040E880070000003E00C1810041004C8
:1016D800100410081C10000010041FFC1004100453
:1016E8001004080807F0000010041FFC110411047E
:1016F80017C410040818000010041FFC110411007E
:1017080017C010000800000003E00C1810041004B3
:1017180010441C780040000010041FFC1084008056
:10172800008010841FFC10040000100410041FFC2B
:101738001004100400000000000300011001100153
:101748001FFE10001000000010041FFC110403808D
:101758001464181C1004000010041FFC100400047A
:1017680000040004000C000010041FFC1F0000FC13
:101778001F001FFC1004000010041FFC0C040300D1
:1017880000E010181FFC100007F0080810041004EF
:101798001004080807F0000010041FFC10841080D3
:1017A800108010800F00000007F008181024102483
:1017B800101C080A07F2000010041FFC1104110095
:1017C80011C011300E0C000400000E1C110410840E
:1017D800108410441C3800001800100010041FFC6E
:1017E800100410001800000010001FF81004000476
:1017F800000410041FF8100010001E0011E0001C67
:10180800007013801C0010001FC0103C00E01F0077
:1018180000E0103C1FC000001004180C163401C072
:1018280001C01634180C100410001C00130400FC2E
:1018380013041C00100000000804101C106410841D
:1018480013041C04101800000000000000007FFEB4
:101858004002400240020000000030000C000380FB
:101868000060001C0003000000004002400240022B
:101878007FFE000000000000000000002000400083
:1018880040004000200000000001000100010001AC
:10189800000100010001000100004000400020009C
:1018A800000000000000000000000098012401442E
:1018B8000144014400FC000410001FFC00880104DE
:1018C8000104008800700000000000700088010416
:1018D8000104010400880000000000700088010471
:1018E800010411081FFC0004000000F80144014431
:1018F8000144014400C800000000010401040FFC79
:101908001104110411001800000000D60129012952
:10191800012901C90106000010041FFC0084010010
:101928000100010400FC000400000104190419FC72
:101938000004000400000000000000030001010191
:10194800190119FE0000000010041FFC00240040CB
:1019580001B4010C010400000000100410041FFC75
:101968000004000400000000010401FC010401005F
:1019780001FC0104010000FC010401FC00840100D9
:101988000100010400FC0004000000F80104010447
:101998000104010400F80000010101FF00850104B1
:1019A8000104008800700000000000700088010435
:1019B8000104010501FF00010104010401FC008488
:1019C8000104010001800000000000CC0124012472
:1019D800012401240198000000000100010007F81B
:1019E8000104010400000000010001F800040004E3
:1019F8000004010801FC0004010001800170000CD2
:101A0800001001600180010001F0010C003001C0EC
:101A18000030010C01F0010000000104018C007489
:101A28000170018C01040000010101810171000EA7
:101A3800001801600180010000000184010C0134DC
:101A480001440184010C00000000000000000000B7
:101A580001003EFC400240020000000000000000BF
:101A6800FFFF0000000000000000400240023EFCB2
:101A780001000000000000000000600080008000FD
:101A8800400040002000200002C0010002C0000009
:101A98000316900003249000032AD000032FD000DF
:101AA80003061000031F10000590810005908300B5
:101AB80005908500059087000590890005908B00AA
:041AC80005908D00F8
:041ACC0031010008DC
:041AD0000D010008FC
:101AD400780F0008A80000208001002018000020D2
:101AE4000000000000000000800F0008300000200B
:101AF4009000002000000000000000204D0C0008B1
:101B0400880F000848000020180000200000000092
:101B140000000020650C0008980F000860000020F9
:101B24003000002000000000000000207D0C0008B0
:101B3400A40F0008780000204800002000000000E6
:101B440000000020950C0008B00F00089000002051
:101B5400600000200000000000000020AD0C000820
:101B6400C00F000800000000780000200000000002
:101B740000000020C50C0008D00F000868010020F8
:101B840000000020C0000020000000000000000051
:101B9400DC0F0008D80000205001002000000000E5
:101BA400A8000020DD0C0008E40F0008F00000206D
:101BB400C000002000000000A8000020F50C000870
:101BC400EC0F000808010020D800002000000000ED
:101BD400A80000200D0D0008F40F000820010020CB
:101BE400F000002000000000A8000020250D0008DF
:101BF400FC0F00083801002008010020000000004C
:101C0400A80000203D0D0008041000085001002029
:101C14002001002000000000A8000020550D00084D
:101C24000C10000800000000380100200000000033
:101C3400A80000206D0D0008141000088001002089
:101C4400A80000200000000000000000850D00082E
:101C54001C100008000000006801002000000000C3
:0C1C6400000000009D0D000800000020A2
:0400000508000ECD14
:00000001FF
